{
  "_format": "hh-sol-artifact-1",
  "contractName": "NFT",
  "sourceName": "contracts/NFT.sol",
  "abi": [
    {
      "inputs": [
        {
          "internalType": "address",
          "name": "marketplaceAddress",
          "type": "address"
        }
      ],
      "stateMutability": "nonpayable",
      "type": "constructor"
    },
    {
      "anonymous": false,
      "inputs": [
        {
          "indexed": true,
          "internalType": "address",
          "name": "owner",
          "type": "address"
        },
        {
          "indexed": true,
          "internalType": "address",
          "name": "approved",
          "type": "address"
        },
        {
          "indexed": true,
          "internalType": "uint256",
          "name": "tokenId",
          "type": "uint256"
        }
      ],
      "name": "Approval",
      "type": "event"
    },
    {
      "anonymous": false,
      "inputs": [
        {
          "indexed": true,
          "internalType": "address",
          "name": "owner",
          "type": "address"
        },
        {
          "indexed": true,
          "internalType": "address",
          "name": "operator",
          "type": "address"
        },
        {
          "indexed": false,
          "internalType": "bool",
          "name": "approved",
          "type": "bool"
        }
      ],
      "name": "ApprovalForAll",
      "type": "event"
    },
    {
      "anonymous": false,
      "inputs": [
        {
          "indexed": true,
          "internalType": "address",
          "name": "from",
          "type": "address"
        },
        {
          "indexed": true,
          "internalType": "address",
          "name": "to",
          "type": "address"
        },
        {
          "indexed": true,
          "internalType": "uint256",
          "name": "tokenId",
          "type": "uint256"
        }
      ],
      "name": "Transfer",
      "type": "event"
    },
    {
      "stateMutability": "payable",
      "type": "fallback"
    },
    {
      "inputs": [
        {
          "internalType": "address",
          "name": "to",
          "type": "address"
        },
        {
          "internalType": "uint256",
          "name": "tokenId",
          "type": "uint256"
        }
      ],
      "name": "approve",
      "outputs": [],
      "stateMutability": "nonpayable",
      "type": "function"
    },
    {
      "inputs": [
        {
          "internalType": "address",
          "name": "owner",
          "type": "address"
        }
      ],
      "name": "balanceOf",
      "outputs": [
        {
          "internalType": "uint256",
          "name": "",
          "type": "uint256"
        }
      ],
      "stateMutability": "view",
      "type": "function"
    },
    {
      "inputs": [
        {
          "internalType": "uint256",
          "name": "tokenId",
          "type": "uint256"
        }
      ],
      "name": "getApproved",
      "outputs": [
        {
          "internalType": "address",
          "name": "",
          "type": "address"
        }
      ],
      "stateMutability": "view",
      "type": "function"
    },
    {
      "inputs": [
        {
          "internalType": "address",
          "name": "owner",
          "type": "address"
        },
        {
          "internalType": "address",
          "name": "operator",
          "type": "address"
        }
      ],
      "name": "isApprovedForAll",
      "outputs": [
        {
          "internalType": "bool",
          "name": "",
          "type": "bool"
        }
      ],
      "stateMutability": "view",
      "type": "function"
    },
    {
      "inputs": [
        {
          "internalType": "string",
          "name": "_tokenURI",
          "type": "string"
        }
      ],
      "name": "mint",
      "outputs": [
        {
          "internalType": "uint256",
          "name": "",
          "type": "uint256"
        }
      ],
      "stateMutability": "nonpayable",
      "type": "function"
    },
    {
      "inputs": [],
      "name": "name",
      "outputs": [
        {
          "internalType": "string",
          "name": "",
          "type": "string"
        }
      ],
      "stateMutability": "view",
      "type": "function"
    },
    {
      "inputs": [
        {
          "internalType": "uint256",
          "name": "tokenId",
          "type": "uint256"
        }
      ],
      "name": "ownerOf",
      "outputs": [
        {
          "internalType": "address",
          "name": "",
          "type": "address"
        }
      ],
      "stateMutability": "view",
      "type": "function"
    },
    {
      "inputs": [
        {
          "internalType": "address",
          "name": "from",
          "type": "address"
        },
        {
          "internalType": "address",
          "name": "to",
          "type": "address"
        },
        {
          "internalType": "uint256",
          "name": "tokenId",
          "type": "uint256"
        }
      ],
      "name": "safeTransferFrom",
      "outputs": [],
      "stateMutability": "nonpayable",
      "type": "function"
    },
    {
      "inputs": [
        {
          "internalType": "address",
          "name": "from",
          "type": "address"
        },
        {
          "internalType": "address",
          "name": "to",
          "type": "address"
        },
        {
          "internalType": "uint256",
          "name": "tokenId",
          "type": "uint256"
        },
        {
          "internalType": "bytes",
          "name": "_data",
          "type": "bytes"
        }
      ],
      "name": "safeTransferFrom",
      "outputs": [],
      "stateMutability": "nonpayable",
      "type": "function"
    },
    {
      "inputs": [
        {
          "internalType": "address",
          "name": "operator",
          "type": "address"
        },
        {
          "internalType": "bool",
          "name": "approved",
          "type": "bool"
        }
      ],
      "name": "setApprovalForAll",
      "outputs": [],
      "stateMutability": "nonpayable",
      "type": "function"
    },
    {
      "inputs": [
        {
          "internalType": "bytes4",
          "name": "interfaceId",
          "type": "bytes4"
        }
      ],
      "name": "supportsInterface",
      "outputs": [
        {
          "internalType": "bool",
          "name": "",
          "type": "bool"
        }
      ],
      "stateMutability": "view",
      "type": "function"
    },
    {
      "inputs": [],
      "name": "symbol",
      "outputs": [
        {
          "internalType": "string",
          "name": "",
          "type": "string"
        }
      ],
      "stateMutability": "view",
      "type": "function"
    },
    {
      "inputs": [],
      "name": "tokenIds",
      "outputs": [
        {
          "internalType": "uint256",
          "name": "",
          "type": "uint256"
        }
      ],
      "stateMutability": "view",
      "type": "function"
    },
    {
      "inputs": [
        {
          "internalType": "uint256",
          "name": "tokenId",
          "type": "uint256"
        }
      ],
      "name": "tokenURI",
      "outputs": [
        {
          "internalType": "string",
          "name": "",
          "type": "string"
        }
      ],
      "stateMutability": "view",
      "type": "function"
    },
    {
      "inputs": [
        {
          "internalType": "address",
          "name": "from",
          "type": "address"
        },
        {
          "internalType": "address",
          "name": "to",
          "type": "address"
        },
        {
          "internalType": "uint256",
          "name": "tokenId",
          "type": "uint256"
        }
      ],
      "name": "transferFrom",
      "outputs": [],
      "stateMutability": "nonpayable",
      "type": "function"
    },
    {
      "stateMutability": "payable",
      "type": "receive"
    }
  ],
  "bytecode": "0x60806040523480156200001157600080fd5b5060405162001a6038038062001a60833981016040819052620000349162000167565b604080518082018252600a8152694e465420746f6b656e7360b01b60208083019182528351808501909452600384526213919560ea1b9084015281519192916200008191600091620000c1565b50805162000097906001906020840190620000c1565b5050600880546001600160a01b0319166001600160a01b03939093169290921790915550620001d4565b828054620000cf9062000197565b90600052602060002090601f016020900481019282620000f357600085556200013e565b82601f106200010e57805160ff19168380011785556200013e565b828001600101855582156200013e579182015b828111156200013e57825182559160200191906001019062000121565b506200014c92915062000150565b5090565b5b808211156200014c576000815560010162000151565b60006020828403121562000179578081fd5b81516001600160a01b038116811462000190578182fd5b9392505050565b600181811c90821680620001ac57607f821691505b60208210811415620001ce57634e487b7160e01b600052602260045260246000fd5b50919050565b61187c80620001e46000396000f3fe6080604052600436106100ec5760003560e01c806370a082311161008a578063b88d4fde11610059578063b88d4fde1461028d578063c87b56dd146102ad578063d85d3d27146102cd578063e985e9c5146102ed576100fc565b806370a0823114610214578063714cff561461024257806395d89b4114610258578063a22cb4651461026d576100fc565b8063095ea7b3116100c6578063095ea7b31461019457806323b872dd146101b457806342842e0e146101d45780636352211e146101f4576100fc565b806301ffc9a71461010557806306fdde031461013a578063081812fc1461015c576100fc565b366100fc576100fa34610336565b005b6100fa34610336565b34801561011157600080fd5b50610125610120366004611531565b61037e565b60405190151581526020015b60405180910390f35b34801561014657600080fd5b5061014f6103d0565b604051610131919061165f565b34801561016857600080fd5b5061017c6101773660046115af565b610462565b6040516001600160a01b039091168152602001610131565b3480156101a057600080fd5b506100fa6101af366004611508565b6104ef565b3480156101c057600080fd5b506100fa6101cf36600461141a565b610605565b3480156101e057600080fd5b506100fa6101ef36600461141a565b610636565b34801561020057600080fd5b5061017c61020f3660046115af565b610651565b34801561022057600080fd5b5061023461022f3660046113ce565b6106c8565b604051908152602001610131565b34801561024e57600080fd5b5061023460075481565b34801561026457600080fd5b5061014f61074f565b34801561027957600080fd5b506100fa6102883660046114ce565b61075e565b34801561029957600080fd5b506100fa6102a8366004611455565b61076d565b3480156102b957600080fd5b5061014f6102c83660046115af565b6107a5565b3480156102d957600080fd5b506102346102e8366004611569565b61091c565b3480156102f957600080fd5b506101256103083660046113e8565b6001600160a01b03918216600090815260056020908152604080832093909416825291909152205460ff1690565b61037b8160405160240161034c91815260200190565b60408051601f198184030181529190526020810180516001600160e01b031663f5b1bba960e01b179052610969565b50565b60006001600160e01b031982166380ac58cd60e01b14806103af57506001600160e01b03198216635b5e139f60e01b145b806103ca57506301ffc9a760e01b6001600160e01b03198316145b92915050565b6060600080546103df90611784565b80601f016020809104026020016040519081016040528092919081815260200182805461040b90611784565b80156104585780601f1061042d57610100808354040283529160200191610458565b820191906000526020600020905b81548152906001019060200180831161043b57829003601f168201915b5050505050905090565b600061046d8261098a565b6104d35760405162461bcd60e51b815260206004820152602c60248201527f4552433732313a20617070726f76656420717565727920666f72206e6f6e657860448201526b34b9ba32b73a103a37b5b2b760a11b60648201526084015b60405180910390fd5b506000908152600460205260409020546001600160a01b031690565b60006104fa82610651565b9050806001600160a01b0316836001600160a01b031614156105685760405162461bcd60e51b815260206004820152602160248201527f4552433732313a20617070726f76616c20746f2063757272656e74206f776e656044820152603960f91b60648201526084016104ca565b336001600160a01b038216148061058457506105848133610308565b6105f65760405162461bcd60e51b815260206004820152603860248201527f4552433732313a20617070726f76652063616c6c6572206973206e6f74206f7760448201527f6e6572206e6f7220617070726f76656420666f7220616c6c000000000000000060648201526084016104ca565b61060083836109a7565b505050565b61060f3382610a15565b61062b5760405162461bcd60e51b81526004016104ca906116c4565b610600838383610afb565b6106008383836040518060200160405280600081525061076d565b6000818152600260205260408120546001600160a01b0316806103ca5760405162461bcd60e51b815260206004820152602960248201527f4552433732313a206f776e657220717565727920666f72206e6f6e657869737460448201526832b73a103a37b5b2b760b91b60648201526084016104ca565b60006001600160a01b0382166107335760405162461bcd60e51b815260206004820152602a60248201527f4552433732313a2062616c616e636520717565727920666f7220746865207a65604482015269726f206164647265737360b01b60648201526084016104ca565b506001600160a01b031660009081526003602052604090205490565b6060600180546103df90611784565b610769338383610c97565b5050565b6107773383610a15565b6107935760405162461bcd60e51b81526004016104ca906116c4565b61079f84848484610d66565b50505050565b60606107b08261098a565b6108165760405162461bcd60e51b815260206004820152603160248201527f45524337323155524953746f726167653a2055524920717565727920666f72206044820152703737b732bc34b9ba32b73a103a37b5b2b760791b60648201526084016104ca565b6000828152600660205260408120805461082f90611784565b80601f016020809104026020016040519081016040528092919081815260200182805461085b90611784565b80156108a85780601f1061087d576101008083540402835291602001916108a8565b820191906000526020600020905b81548152906001019060200180831161088b57829003601f168201915b5050505050905060006108c660408051602081019091526000815290565b90508051600014156108d9575092915050565b81511561090b5780826040516020016108f39291906115f3565b60405160208183030381529060405292505050919050565b61091484610d99565b949350505050565b600780546000918261092d836117bf565b919050555061093e33600754610e71565b61094a60075483610e8b565b600854610961906001600160a01b0316600161075e565b505060075490565b80516a636f6e736f6c652e6c6f67602083016000808483855afa5050505050565b6000908152600260205260409020546001600160a01b0316151590565b600081815260046020526040902080546001600160a01b0319166001600160a01b03841690811790915581906109dc82610651565b6001600160a01b03167f8c5be1e5ebec7d5bd14f71427d1e84f3dd0314c0f7b2291e5b200ac8c7c3b92560405160405180910390a45050565b6000610a208261098a565b610a815760405162461bcd60e51b815260206004820152602c60248201527f4552433732313a206f70657261746f7220717565727920666f72206e6f6e657860448201526b34b9ba32b73a103a37b5b2b760a11b60648201526084016104ca565b6000610a8c83610651565b9050806001600160a01b0316846001600160a01b03161480610ac75750836001600160a01b0316610abc84610462565b6001600160a01b0316145b8061091457506001600160a01b0380821660009081526005602090815260408083209388168352929052205460ff16610914565b826001600160a01b0316610b0e82610651565b6001600160a01b031614610b725760405162461bcd60e51b815260206004820152602560248201527f4552433732313a207472616e736665722066726f6d20696e636f72726563742060448201526437bbb732b960d91b60648201526084016104ca565b6001600160a01b038216610bd45760405162461bcd60e51b8152602060048201526024808201527f4552433732313a207472616e7366657220746f20746865207a65726f206164646044820152637265737360e01b60648201526084016104ca565b610bdf6000826109a7565b6001600160a01b0383166000908152600360205260408120805460019290610c08908490611741565b90915550506001600160a01b0382166000908152600360205260408120805460019290610c36908490611715565b909155505060008181526002602052604080822080546001600160a01b0319166001600160a01b0386811691821790925591518493918716917fddf252ad1be2c89b69c2b068fc378daa952ba7f163c4a11628f55a4df523b3ef91a4505050565b816001600160a01b0316836001600160a01b03161415610cf95760405162461bcd60e51b815260206004820152601960248201527f4552433732313a20617070726f766520746f2063616c6c65720000000000000060448201526064016104ca565b6001600160a01b03838116600081815260056020908152604080832094871680845294825291829020805460ff191686151590811790915591519182527f17307eab39ab6107e8899845ad3d59bd9653f200f220920489ca2b5937696c31910160405180910390a3505050565b610d71848484610afb565b610d7d84848484610f16565b61079f5760405162461bcd60e51b81526004016104ca90611672565b6060610da48261098a565b610e085760405162461bcd60e51b815260206004820152602f60248201527f4552433732314d657461646174613a2055524920717565727920666f72206e6f60448201526e3732bc34b9ba32b73a103a37b5b2b760891b60648201526084016104ca565b6000610e1f60408051602081019091526000815290565b90506000815111610e3f5760405180602001604052806000815250610e6a565b80610e4984611023565b604051602001610e5a9291906115f3565b6040516020818303038152906040525b9392505050565b61076982826040518060200160405280600081525061113d565b610e948261098a565b610ef75760405162461bcd60e51b815260206004820152602e60248201527f45524337323155524953746f726167653a2055524920736574206f66206e6f6e60448201526d32bc34b9ba32b73a103a37b5b2b760911b60648201526084016104ca565b60008281526006602090815260409091208251610600928401906112a3565b60006001600160a01b0384163b1561101857604051630a85bd0160e11b81526001600160a01b0385169063150b7a0290610f5a903390899088908890600401611622565b602060405180830381600087803b158015610f7457600080fd5b505af1925050508015610fa4575060408051601f3d908101601f19168201909252610fa19181019061154d565b60015b610ffe573d808015610fd2576040519150601f19603f3d011682016040523d82523d6000602084013e610fd7565b606091505b508051610ff65760405162461bcd60e51b81526004016104ca90611672565b805181602001fd5b6001600160e01b031916630a85bd0160e11b149050610914565b506001949350505050565b6060816110475750506040805180820190915260018152600360fc1b602082015290565b8160005b8115611071578061105b816117bf565b915061106a9050600a8361172d565b915061104b565b60008167ffffffffffffffff81111561109a57634e487b7160e01b600052604160045260246000fd5b6040519080825280601f01601f1916602001820160405280156110c4576020820181803683370190505b5090505b8415610914576110d9600183611741565b91506110e6600a866117da565b6110f1906030611715565b60f81b81838151811061111457634e487b7160e01b600052603260045260246000fd5b60200101906001600160f81b031916908160001a905350611136600a8661172d565b94506110c8565b6111478383611170565b6111546000848484610f16565b6106005760405162461bcd60e51b81526004016104ca90611672565b6001600160a01b0382166111c65760405162461bcd60e51b815260206004820181905260248201527f4552433732313a206d696e7420746f20746865207a65726f206164647265737360448201526064016104ca565b6111cf8161098a565b1561121c5760405162461bcd60e51b815260206004820152601c60248201527f4552433732313a20746f6b656e20616c7265616479206d696e7465640000000060448201526064016104ca565b6001600160a01b0382166000908152600360205260408120805460019290611245908490611715565b909155505060008181526002602052604080822080546001600160a01b0319166001600160a01b03861690811790915590518392907fddf252ad1be2c89b69c2b068fc378daa952ba7f163c4a11628f55a4df523b3ef908290a45050565b8280546112af90611784565b90600052602060002090601f0160209004810192826112d15760008555611317565b82601f106112ea57805160ff1916838001178555611317565b82800160010185558215611317579182015b828111156113175782518255916020019190600101906112fc565b50611323929150611327565b5090565b5b808211156113235760008155600101611328565b600067ffffffffffffffff808411156113575761135761181a565b604051601f8501601f19908116603f0116810190828211818310171561137f5761137f61181a565b8160405280935085815286868601111561139857600080fd5b858560208301376000602087830101525050509392505050565b80356001600160a01b03811681146113c957600080fd5b919050565b6000602082840312156113df578081fd5b610e6a826113b2565b600080604083850312156113fa578081fd5b611403836113b2565b9150611411602084016113b2565b90509250929050565b60008060006060848603121561142e578081fd5b611437846113b2565b9250611445602085016113b2565b9150604084013590509250925092565b6000806000806080858703121561146a578081fd5b611473856113b2565b9350611481602086016113b2565b925060408501359150606085013567ffffffffffffffff8111156114a3578182fd5b8501601f810187136114b3578182fd5b6114c28782356020840161133c565b91505092959194509250565b600080604083850312156114e0578182fd5b6114e9836113b2565b9150602083013580151581146114fd578182fd5b809150509250929050565b6000806040838503121561151a578182fd5b611523836113b2565b946020939093013593505050565b600060208284031215611542578081fd5b8135610e6a81611830565b60006020828403121561155e578081fd5b8151610e6a81611830565b60006020828403121561157a578081fd5b813567ffffffffffffffff811115611590578182fd5b8201601f810184136115a0578182fd5b6109148482356020840161133c565b6000602082840312156115c0578081fd5b5035919050565b600081518084526115df816020860160208601611758565b601f01601f19169290920160200192915050565b60008351611605818460208801611758565b835190830190611619818360208801611758565b01949350505050565b6001600160a01b0385811682528416602082015260408101839052608060608201819052600090611655908301846115c7565b9695505050505050565b602081526000610e6a60208301846115c7565b60208082526032908201527f4552433732313a207472616e7366657220746f206e6f6e20455243373231526560408201527131b2b4bb32b91034b6b83632b6b2b73a32b960711b606082015260800190565b60208082526031908201527f4552433732313a207472616e736665722063616c6c6572206973206e6f74206f6040820152701ddb995c881b9bdc88185c1c1c9bdd9959607a1b606082015260800190565b60008219821115611728576117286117ee565b500190565b60008261173c5761173c611804565b500490565b600082821015611753576117536117ee565b500390565b60005b8381101561177357818101518382015260200161175b565b8381111561079f5750506000910152565b600181811c9082168061179857607f821691505b602082108114156117b957634e487b7160e01b600052602260045260246000fd5b50919050565b60006000198214156117d3576117d36117ee565b5060010190565b6000826117e9576117e9611804565b500690565b634e487b7160e01b600052601160045260246000fd5b634e487b7160e01b600052601260045260246000fd5b634e487b7160e01b600052604160045260246000fd5b6001600160e01b03198116811461037b57600080fdfea2646970667358221220b5df517350324f271a2e01ad145d3a4ade222f624631b8d4c26d7d9ad5ccaaca64736f6c63430008040033",
  "linkReferences": {},
  "deployedLinkReferences": {}
}